{
  "contractName": "Election",
  "abi": [
    {
      "inputs": [],
      "stateMutability": "nonpayable",
      "type": "constructor"
    },
    {
      "anonymous": false,
      "inputs": [
        {
          "indexed": false,
          "internalType": "string",
          "name": "_name",
          "type": "string"
        }
      ],
      "name": "AddCandidateEvent",
      "type": "event"
    },
    {
      "anonymous": false,
      "inputs": [
        {
          "indexed": true,
          "internalType": "uint256",
          "name": "_candidateId",
          "type": "uint256"
        }
      ],
      "name": "VotedEvent",
      "type": "event"
    },
    {
      "inputs": [
        {
          "internalType": "uint256",
          "name": "",
          "type": "uint256"
        }
      ],
      "name": "candidates",
      "outputs": [
        {
          "internalType": "uint256",
          "name": "id",
          "type": "uint256"
        },
        {
          "internalType": "string",
          "name": "name",
          "type": "string"
        },
        {
          "internalType": "uint256",
          "name": "voteCount",
          "type": "uint256"
        }
      ],
      "stateMutability": "view",
      "type": "function",
      "constant": true
    },
    {
      "inputs": [],
      "name": "candidatesCount",
      "outputs": [
        {
          "internalType": "uint256",
          "name": "",
          "type": "uint256"
        }
      ],
      "stateMutability": "view",
      "type": "function",
      "constant": true
    },
    {
      "inputs": [
        {
          "internalType": "address",
          "name": "",
          "type": "address"
        }
      ],
      "name": "voters",
      "outputs": [
        {
          "internalType": "bool",
          "name": "",
          "type": "bool"
        }
      ],
      "stateMutability": "view",
      "type": "function",
      "constant": true
    },
    {
      "inputs": [
        {
          "internalType": "string",
          "name": "_name",
          "type": "string"
        }
      ],
      "name": "addCandidate",
      "outputs": [],
      "stateMutability": "nonpayable",
      "type": "function"
    },
    {
      "inputs": [
        {
          "internalType": "uint256",
          "name": "_candidateId",
          "type": "uint256"
        }
      ],
      "name": "vote",
      "outputs": [],
      "stateMutability": "nonpayable",
      "type": "function"
    },
    {
      "inputs": [],
      "name": "getAllCandidates",
      "outputs": [
        {
          "components": [
            {
              "internalType": "uint256",
              "name": "id",
              "type": "uint256"
            },
            {
              "internalType": "string",
              "name": "name",
              "type": "string"
            },
            {
              "internalType": "uint256",
              "name": "voteCount",
              "type": "uint256"
            }
          ],
          "internalType": "struct Election.Candidate[]",
          "name": "",
          "type": "tuple[]"
        }
      ],
      "stateMutability": "view",
      "type": "function",
      "constant": true
    }
  ],
  "bytecode": "0x60806040523480156200001157600080fd5b50620000586040518060400160405280600b81526020017f43616e6469646174652031000000000000000000000000000000000000000000815250620000a460201b60201c565b6200009e6040518060400160405280600b81526020017f43616e6469646174652032000000000000000000000000000000000000000000815250620000a460201b60201c565b62000445565b60026000815480929190620000b990620002ca565b919050555060405180606001604052806002548152602001828152602001600081525060016000600254815260200190815260200160002060008201518160000155602082015181600101908051906020019062000119929190620001e1565b50604082015181600201559050506003604051806060016040528060025481526020018381526020016000815250908060018154018082558091505060019003906000526020600020906003020160009091909190915060008201518160000155602082015181600101908051906020019062000198929190620001e1565b506040820151816002015550507f5e7d2b4314faf2bbaa75af385bd68392a703aca7dc1f57abf27887579189986a81604051620001d69190620003bc565b60405180910390a150565b828054620001ef906200040f565b90600052602060002090601f0160209004810192826200021357600085556200025f565b82601f106200022e57805160ff19168380011785556200025f565b828001600101855582156200025f579182015b828111156200025e57825182559160200191906001019062000241565b5b5090506200026e919062000272565b5090565b5b808211156200028d57600081600090555060010162000273565b5090565b7f4e487b7100000000000000000000000000000000000000000000000000000000600052601160045260246000fd5b6000819050919050565b6000620002d782620002c0565b91507fffffffffffffffffffffffffffffffffffffffffffffffffffffffffffffffff8214156200030d576200030c62000291565b5b600182019050919050565b600081519050919050565b600082825260208201905092915050565b60005b838110156200035457808201518184015260208101905062000337565b8381111562000364576000848401525b50505050565b6000601f19601f8301169050919050565b6000620003888262000318565b62000394818562000323565b9350620003a681856020860162000334565b620003b1816200036a565b840191505092915050565b60006020820190508181036000830152620003d881846200037b565b905092915050565b7f4e487b7100000000000000000000000000000000000000000000000000000000600052602260045260246000fd5b600060028204905060018216806200042857607f821691505b602082108114156200043f576200043e620003e0565b5b50919050565b610c8b80620004556000396000f3fe608060405234801561001057600080fd5b50600436106100625760003560e01c80630121b93f146100675780632d35a8a2146100835780632e6997fe146100a15780633477ee2e146100bf578063462e91ec146100f1578063a3ec138d1461010d575b600080fd5b610081600480360381019061007c9190610660565b61013d565b005b61008b610261565b604051610098919061069c565b60405180910390f35b6100a9610267565b6040516100b69190610871565b60405180910390f35b6100d960048036038101906100d49190610660565b61036c565b6040516100e8939291906108dd565b60405180910390f35b61010b60048036038101906101069190610a50565b61041e565b005b61012760048036038101906101229190610af7565b610553565b6040516101349190610b3f565b60405180910390f35b6000803373ffffffffffffffffffffffffffffffffffffffff1673ffffffffffffffffffffffffffffffffffffffff16815260200190815260200160002060009054906101000a900460ff161561019357600080fd5b6000811180156101a557506002548111155b6101ae57600080fd5b60016000803373ffffffffffffffffffffffffffffffffffffffff1673ffffffffffffffffffffffffffffffffffffffff16815260200190815260200160002060006101000a81548160ff02191690831515021790555060016000828152602001908152602001600020600201600081548092919061022c90610b89565b9190505550807fe447c5464cb203c1da94b4db8588d3cbf313ce4a489122f6b88e87f465b2810e60405160405180910390a250565b60025481565b60606003805480602002602001604051908101604052809291908181526020016000905b828210156103635783829060005260206000209060030201604051806060016040529081600082015481526020016001820180546102c890610c01565b80601f01602080910402602001604051908101604052809291908181526020018280546102f490610c01565b80156103415780601f1061031657610100808354040283529160200191610341565b820191906000526020600020905b81548152906001019060200180831161032457829003601f168201915b505050505081526020016002820154815250508152602001906001019061028b565b50505050905090565b600160205280600052604060002060009150905080600001549080600101805461039590610c01565b80601f01602080910402602001604051908101604052809291908181526020018280546103c190610c01565b801561040e5780601f106103e35761010080835404028352916020019161040e565b820191906000526020600020905b8154815290600101906020018083116103f157829003601f168201915b5050505050908060020154905083565b6002600081548092919061043190610b89565b919050555060405180606001604052806002548152602001828152602001600081525060016000600254815260200190815260200160002060008201518160000155602082015181600101908051906020019061048f929190610573565b50604082015181600201559050506003604051806060016040528060025481526020018381526020016000815250908060018154018082558091505060019003906000526020600020906003020160009091909190915060008201518160000155602082015181600101908051906020019061050c929190610573565b506040820151816002015550507f5e7d2b4314faf2bbaa75af385bd68392a703aca7dc1f57abf27887579189986a816040516105489190610c33565b60405180910390a150565b60006020528060005260406000206000915054906101000a900460ff1681565b82805461057f90610c01565b90600052602060002090601f0160209004810192826105a157600085556105e8565b82601f106105ba57805160ff19168380011785556105e8565b828001600101855582156105e8579182015b828111156105e75782518255916020019190600101906105cc565b5b5090506105f591906105f9565b5090565b5b808211156106125760008160009055506001016105fa565b5090565b6000604051905090565b600080fd5b600080fd5b6000819050919050565b61063d8161062a565b811461064857600080fd5b50565b60008135905061065a81610634565b92915050565b60006020828403121561067657610675610620565b5b60006106848482850161064b565b91505092915050565b6106968161062a565b82525050565b60006020820190506106b1600083018461068d565b92915050565b600081519050919050565b600082825260208201905092915050565b6000819050602082019050919050565b6106ec8161062a565b82525050565b600081519050919050565b600082825260208201905092915050565b60005b8381101561072c578082015181840152602081019050610711565b8381111561073b576000848401525b50505050565b6000601f19601f8301169050919050565b600061075d826106f2565b61076781856106fd565b935061077781856020860161070e565b61078081610741565b840191505092915050565b60006060830160008301516107a360008601826106e3565b50602083015184820360208601526107bb8282610752565b91505060408301516107d060408601826106e3565b508091505092915050565b60006107e7838361078b565b905092915050565b6000602082019050919050565b6000610807826106b7565b61081181856106c2565b935083602082028501610823856106d3565b8060005b8581101561085f578484038952815161084085826107db565b945061084b836107ef565b925060208a01995050600181019050610827565b50829750879550505050505092915050565b6000602082019050818103600083015261088b81846107fc565b905092915050565b600082825260208201905092915050565b60006108af826106f2565b6108b98185610893565b93506108c981856020860161070e565b6108d281610741565b840191505092915050565b60006060820190506108f2600083018661068d565b818103602083015261090481856108a4565b9050610913604083018461068d565b949350505050565b600080fd5b600080fd5b7f4e487b7100000000000000000000000000000000000000000000000000000000600052604160045260246000fd5b61095d82610741565b810181811067ffffffffffffffff8211171561097c5761097b610925565b5b80604052505050565b600061098f610616565b905061099b8282610954565b919050565b600067ffffffffffffffff8211156109bb576109ba610925565b5b6109c482610741565b9050602081019050919050565b82818337600083830152505050565b60006109f36109ee846109a0565b610985565b905082815260208101848484011115610a0f57610a0e610920565b5b610a1a8482856109d1565b509392505050565b600082601f830112610a3757610a3661091b565b5b8135610a478482602086016109e0565b91505092915050565b600060208284031215610a6657610a65610620565b5b600082013567ffffffffffffffff811115610a8457610a83610625565b5b610a9084828501610a22565b91505092915050565b600073ffffffffffffffffffffffffffffffffffffffff82169050919050565b6000610ac482610a99565b9050919050565b610ad481610ab9565b8114610adf57600080fd5b50565b600081359050610af181610acb565b92915050565b600060208284031215610b0d57610b0c610620565b5b6000610b1b84828501610ae2565b91505092915050565b60008115159050919050565b610b3981610b24565b82525050565b6000602082019050610b546000830184610b30565b92915050565b7f4e487b7100000000000000000000000000000000000000000000000000000000600052601160045260246000fd5b6000610b948261062a565b91507fffffffffffffffffffffffffffffffffffffffffffffffffffffffffffffffff821415610bc757610bc6610b5a565b5b600182019050919050565b7f4e487b7100000000000000000000000000000000000000000000000000000000600052602260045260246000fd5b60006002820490506001821680610c1957607f821691505b60208210811415610c2d57610c2c610bd2565b5b50919050565b60006020820190508181036000830152610c4d81846108a4565b90509291505056fea2646970667358221220e7b8298c639087c9015da72d6d59a8cc2aa705dc40843ae2a74e4afa7fd50c0f64736f6c634300080a0033",
  "immutableReferences": {},
  "source": "// SPDX-License-Identifier: MIT\npragma solidity ^0.8.0;\n\ncontract Election {\n    struct Candidate {\n        uint256 id;\n        string name;\n        uint256 voteCount;\n    }\n\n    mapping(address => bool) public voters;\n    //Store and fetch candidates\n    mapping(uint256 => Candidate) public candidates;\n    uint256 public candidatesCount;\n\n    Candidate[] cands;\n\n    event VotedEvent(uint256 indexed _candidateId);\n    event AddCandidateEvent(string _name);\n\n    constructor() public {\n        addCandidate(\"Candidate 1\");\n        addCandidate(\"Candidate 2\");\n    }\n\n    function addCandidate(string memory _name) public {\n        candidatesCount++;\n        candidates[candidatesCount] = Candidate(candidatesCount, _name, 0);\n        cands.push(Candidate(candidatesCount, _name, 0));\n        emit AddCandidateEvent(_name);\n    }\n\n    function vote(uint256 _candidateId) public {\n        require(!voters[msg.sender]);\n\n        require(_candidateId > 0 && _candidateId <= candidatesCount);\n\n        voters[msg.sender] = true;\n        candidates[_candidateId].voteCount++;\n        emit VotedEvent(_candidateId);\n    }\n\n    function getAllCandidates() public view returns (Candidate[] memory) {\n        return cands;\n    }\n}\n",
  "sourcePath": "C:\\Users\\jason\\OneDrive\\Desktop\\Doc\\Blockchain\\election\\contracts\\Elections.sol",
  "compiler": {
    "name": "solc",
    "version": "0.8.10+commit.fc410830.Emscripten.clang"
  },
  "schemaVersion": "3.4.4",
  "updatedAt": "2022-01-01T16:48:08.456Z",
  "networkType": "ethereum",
  "devdoc": {
    "kind": "dev",
    "methods": {},
    "version": 1
  },
  "userdoc": {
    "kind": "user",
    "methods": {},
    "version": 1
  }
}